{
  "_format": "hh-sol-artifact-1",
  "contractName": "Events2front",
  "sourceName": "contracts/Events2front.sol",
  "abi": [
    {
      "anonymous": false,
      "inputs": [
        {
          "indexed": true,
          "internalType": "address",
          "name": "contributorSearch",
          "type": "address"
        },
        {
          "indexed": false,
          "internalType": "address",
          "name": "contributor",
          "type": "address"
        },
        {
          "indexed": false,
          "internalType": "uint256",
          "name": "contribution",
          "type": "uint256"
        }
      ],
      "name": "Contribute",
      "type": "event"
    },
    {
      "anonymous": false,
      "inputs": [
        {
          "indexed": false,
          "internalType": "address",
          "name": "contributor",
          "type": "address"
        },
        {
          "indexed": false,
          "internalType": "uint256",
          "name": "contribution",
          "type": "uint256"
        }
      ],
      "name": "NewLargestContributor",
      "type": "event"
    },
    {
      "anonymous": false,
      "inputs": [
        {
          "indexed": false,
          "internalType": "address",
          "name": "contributor",
          "type": "address"
        },
        {
          "indexed": false,
          "internalType": "uint256",
          "name": "balance",
          "type": "uint256"
        }
      ],
      "name": "WithdrawMoney",
      "type": "event"
    },
    {
      "inputs": [],
      "name": "contribute",
      "outputs": [],
      "stateMutability": "payable",
      "type": "function"
    },
    {
      "inputs": [],
      "name": "contributionDate",
      "outputs": [
        {
          "internalType": "uint256",
          "name": "",
          "type": "uint256"
        }
      ],
      "stateMutability": "view",
      "type": "function"
    },
    {
      "inputs": [],
      "name": "getBalance",
      "outputs": [
        {
          "internalType": "uint256",
          "name": "",
          "type": "uint256"
        }
      ],
      "stateMutability": "view",
      "type": "function"
    },
    {
      "inputs": [],
      "name": "largestContribution",
      "outputs": [
        {
          "internalType": "uint256",
          "name": "",
          "type": "uint256"
        }
      ],
      "stateMutability": "view",
      "type": "function"
    },
    {
      "inputs": [],
      "name": "largestContributor",
      "outputs": [
        {
          "internalType": "address",
          "name": "",
          "type": "address"
        }
      ],
      "stateMutability": "view",
      "type": "function"
    },
    {
      "inputs": [
        {
          "internalType": "address payable",
          "name": "_to",
          "type": "address"
        }
      ],
      "name": "withdrawMoneyTo",
      "outputs": [],
      "stateMutability": "nonpayable",
      "type": "function"
    }
  ],
  "bytecode": "0x608060405234801561001057600080fd5b506106e3806100206000396000f3fe6080604052600436106100555760003560e01c80630ff8d8a51461005a57806312065fe014610083578063a9d9e42c146100ae578063d7bb99ba146100d9578063de5b5163146100e3578063e317dc861461010e575b600080fd5b34801561006657600080fd5b50610081600480360381019061007c9190610475565b610139565b005b34801561008f57600080fd5b506100986102e6565b6040516100a591906104bb565b60405180910390f35b3480156100ba57600080fd5b506100c36102ee565b6040516100d091906104bb565b60405180910390f35b6100e16102f4565b005b3480156100ef57600080fd5b506100f86103e6565b60405161010591906104f7565b60405180910390f35b34801561011a57600080fd5b5061012361040c565b60405161013091906104bb565b60405180910390f35b600260009054906101000a900473ffffffffffffffffffffffffffffffffffffffff1673ffffffffffffffffffffffffffffffffffffffff163373ffffffffffffffffffffffffffffffffffffffff16146101c9576040517f08c379a00000000000000000000000000000000000000000000000000000000081526004016101c090610595565b60405180910390fd5b426001541061020d576040517f08c379a000000000000000000000000000000000000000000000000000000000815260040161020490610601565b60405180910390fd5b600080819055506000600260006101000a81548173ffffffffffffffffffffffffffffffffffffffff021916908373ffffffffffffffffffffffffffffffffffffffff16021790555060006102606102e6565b90508173ffffffffffffffffffffffffffffffffffffffff166108fc829081150290604051600060405180830381858888f193505050501580156102a8573d6000803e3d6000fd5b507f9fe2db218b58c00ab3556f2be44b2769b37978368c63313d82d78306568e477633826040516102da929190610621565b60405180910390a15050565b600047905090565b60015481565b3373ffffffffffffffffffffffffffffffffffffffff167f3dbad08993b7c571c49ada845d4e0a4a24423f5bb227cfa69c9106520da1bea5333460405161033c929190610621565b60405180910390a23460005410156103e45733600260006101000a81548173ffffffffffffffffffffffffffffffffffffffff021916908373ffffffffffffffffffffffffffffffffffffffff1602179055503460008190555061012c426103a49190610679565b6001819055507fa89a71b33543df7710c8db055fe3b654587bc590d35e91711e6ee51324bff43833346040516103db929190610621565b60405180910390a15b565b600260009054906101000a900473ffffffffffffffffffffffffffffffffffffffff1681565b60005481565b600080fd5b600073ffffffffffffffffffffffffffffffffffffffff82169050919050565b600061044282610417565b9050919050565b61045281610437565b811461045d57600080fd5b50565b60008135905061046f81610449565b92915050565b60006020828403121561048b5761048a610412565b5b600061049984828501610460565b91505092915050565b6000819050919050565b6104b5816104a2565b82525050565b60006020820190506104d060008301846104ac565b92915050565b60006104e182610417565b9050919050565b6104f1816104d6565b82525050565b600060208201905061050c60008301846104e8565b92915050565b600082825260208201905092915050565b7f596f7520617265206e6f7420746865206c61726765737420436f6e747269627560008201527f746f720000000000000000000000000000000000000000000000000000000000602082015250565b600061057f602383610512565b915061058a82610523565b604082019050919050565b600060208201905081810360008301526105ae81610572565b9050919050565b7f706c65617365207761697420796f75722074696d650000000000000000000000600082015250565b60006105eb601583610512565b91506105f6826105b5565b602082019050919050565b6000602082019050818103600083015261061a816105de565b9050919050565b600060408201905061063660008301856104e8565b61064360208301846104ac565b9392505050565b7f4e487b7100000000000000000000000000000000000000000000000000000000600052601160045260246000fd5b6000610684826104a2565b915061068f836104a2565b92508282019050808211156106a7576106a661064a565b5b9291505056fea2646970667358221220380f0994977f75d35a77e3265c3d7207e23a61e95547489d7f2e9080647cef2764736f6c63430008110033",
  "linkReferences": {},
  "deployedLinkReferences": {}
}